{
  "contractName": "Swapoffchains",
  "abi": [
    {
      "constant": true,
      "inputs": [],
      "name": "owner",
      "outputs": [
        {
          "name": "",
          "type": "address"
        }
      ],
      "payable": false,
      "stateMutability": "view",
      "type": "function"
    },
    {
      "constant": true,
      "inputs": [
        {
          "name": "",
          "type": "address"
        },
        {
          "name": "",
          "type": "address"
        }
      ],
      "name": "swaps",
      "outputs": [
        {
          "name": "secret",
          "type": "bytes32"
        },
        {
          "name": "secretHash",
          "type": "bytes20"
        },
        {
          "name": "createdAt",
          "type": "uint256"
        },
        {
          "name": "balance",
          "type": "uint256"
        }
      ],
      "payable": false,
      "stateMutability": "view",
      "type": "function"
    },
    {
      "constant": true,
      "inputs": [],
      "name": "ratingContractAddress",
      "outputs": [
        {
          "name": "",
          "type": "address"
        }
      ],
      "payable": false,
      "stateMutability": "view",
      "type": "function"
    },
    {
      "inputs": [],
      "payable": false,
      "stateMutability": "nonpayable",
      "type": "constructor"
    },
    {
      "anonymous": false,
      "inputs": [],
      "name": "Sign",
      "type": "event"
    },
    {
      "anonymous": false,
      "inputs": [
        {
          "indexed": false,
          "name": "createdAt",
          "type": "uint256"
        }
      ],
      "name": "CreateSwap",
      "type": "event"
    },
    {
      "anonymous": false,
      "inputs": [],
      "name": "Withdraw",
      "type": "event"
    },
    {
      "anonymous": false,
      "inputs": [],
      "name": "Close",
      "type": "event"
    },
    {
      "anonymous": false,
      "inputs": [],
      "name": "Refund",
      "type": "event"
    },
    {
      "anonymous": false,
      "inputs": [],
      "name": "Abort",
      "type": "event"
    },
    {
      "constant": false,
      "inputs": [
        {
          "name": "_ratingContractAddress",
          "type": "address"
        }
      ],
      "name": "setReputationAddress",
      "outputs": [],
      "payable": false,
      "stateMutability": "nonpayable",
      "type": "function"
    },
    {
      "constant": false,
      "inputs": [
        {
          "name": "_participantAddress",
          "type": "address"
        }
      ],
      "name": "sign",
      "outputs": [],
      "payable": false,
      "stateMutability": "nonpayable",
      "type": "function"
    },
    {
      "constant": true,
      "inputs": [],
      "name": "checkSign",
      "outputs": [
        {
          "name": "",
          "type": "uint256"
        }
      ],
      "payable": false,
      "stateMutability": "view",
      "type": "function"
    },
    {
      "constant": false,
      "inputs": [
        {
          "name": "_secretHash",
          "type": "bytes20"
        },
        {
          "name": "_participantAddress",
          "type": "address"
        }
      ],
      "name": "createSwap",
      "outputs": [],
      "payable": true,
      "stateMutability": "payable",
      "type": "function"
    },
    {
      "constant": true,
      "inputs": [
        {
          "name": "_ownerAddress",
          "type": "address"
        }
      ],
      "name": "getBalance",
      "outputs": [
        {
          "name": "",
          "type": "uint256"
        }
      ],
      "payable": false,
      "stateMutability": "view",
      "type": "function"
    },
    {
      "constant": false,
      "inputs": [
        {
          "name": "_secret",
          "type": "bytes32"
        },
        {
          "name": "_ownerAddress",
          "type": "address"
        }
      ],
      "name": "withdraw",
      "outputs": [],
      "payable": false,
      "stateMutability": "nonpayable",
      "type": "function"
    },
    {
      "constant": true,
      "inputs": [
        {
          "name": "_participantAddress",
          "type": "address"
        }
      ],
      "name": "getSecret",
      "outputs": [
        {
          "name": "",
          "type": "bytes32"
        }
      ],
      "payable": false,
      "stateMutability": "view",
      "type": "function"
    },
    {
      "constant": false,
      "inputs": [
        {
          "name": "_participantAddress",
          "type": "address"
        }
      ],
      "name": "close",
      "outputs": [],
      "payable": false,
      "stateMutability": "nonpayable",
      "type": "function"
    },
    {
      "constant": false,
      "inputs": [
        {
          "name": "_participantAddress",
          "type": "address"
        }
      ],
      "name": "refund",
      "outputs": [],
      "payable": false,
      "stateMutability": "nonpayable",
      "type": "function"
    },
    {
      "constant": false,
      "inputs": [
        {
          "name": "_ownerAddress",
          "type": "address"
        }
      ],
      "name": "abort",
      "outputs": [],
      "payable": false,
      "stateMutability": "nonpayable",
      "type": "function"
    }
  ],
  "bytecode": "0x6080604052612a3060025534801561001657600080fd5b50336000806101000a81548173ffffffffffffffffffffffffffffffffffffffff021916908373ffffffffffffffffffffffffffffffffffffffff1602179055506111c9806100666000396000f3006080604052600436106100c5576000357c0100000000000000000000000000000000000000000000000000000000900463ffffffff1680631b258d50146100ca578063284180fc1461011b57806329fd82011461017a5780638da5cb5b146101bd57806390cbfa191461021457806399caf97514610257578063a543bae714610309578063c74073a114610358578063d4fc4c391461039b578063dcb5930a146103c6578063f71be8371461041d578063f8b2cb4f14610460578063fa89401a146104b7575b600080fd5b3480156100d657600080fd5b506101196004803603810190808035600019169060200190929190803573ffffffffffffffffffffffffffffffffffffffff1690602001909291905050506104fa565b005b34801561012757600080fd5b5061015c600480360381019080803573ffffffffffffffffffffffffffffffffffffffff169060200190929190505050610831565b60405180826000191660001916815260200191505060405180910390f35b34801561018657600080fd5b506101bb600480360381019080803573ffffffffffffffffffffffffffffffffffffffff1690602001909291905050506108ba565b005b3480156101c957600080fd5b506101d2610959565b604051808273ffffffffffffffffffffffffffffffffffffffff1673ffffffffffffffffffffffffffffffffffffffff16815260200191505060405180910390f35b34801561022057600080fd5b50610255600480360381019080803573ffffffffffffffffffffffffffffffffffffffff16906020019092919050505061097e565b005b34801561026357600080fd5b506102b8600480360381019080803573ffffffffffffffffffffffffffffffffffffffff169060200190929190803573ffffffffffffffffffffffffffffffffffffffff169060200190929190505050610a45565b604051808560001916600019168152602001846bffffffffffffffffffffffff19166bffffffffffffffffffffffff1916815260200183815260200182815260200194505050505060405180910390f35b61035660048036038101908080356bffffffffffffffffffffffff19169060200190929190803573ffffffffffffffffffffffffffffffffffffffff169060200190929190505050610a9b565b005b34801561036457600080fd5b50610399600480360381019080803573ffffffffffffffffffffffffffffffffffffffff169060200190929190505050610c90565b005b3480156103a757600080fd5b506103b0610d57565b6040518082815260200191505060405180910390f35b3480156103d257600080fd5b506103db610d5f565b604051808273ffffffffffffffffffffffffffffffffffffffff1673ffffffffffffffffffffffffffffffffffffffff16815260200191505060405180910390f35b34801561042957600080fd5b5061045e600480360381019080803573ffffffffffffffffffffffffffffffffffffffff169060200190929190505050610d85565b005b34801561046c57600080fd5b506104a1600480360381019080803573ffffffffffffffffffffffffffffffffffffffff169060200190929190505050610e42565b6040518082815260200191505060405180910390f35b3480156104c357600080fd5b506104f8600480360381019080803573ffffffffffffffffffffffffffffffffffffffff169060200190929190505050610ecb565b005b610502611162565b600360008373ffffffffffffffffffffffffffffffffffffffff1673ffffffffffffffffffffffffffffffffffffffff16815260200190815260200160002060003373ffffffffffffffffffffffffffffffffffffffff1673ffffffffffffffffffffffffffffffffffffffff168152602001908152602001600020608060405190810160405290816000820154600019166000191681526020016001820160009054906101000a90046c01000000000000000000000000026bffffffffffffffffffffffff19166bffffffffffffffffffffffff191681526020016002820154815260200160038201548152505090506003836040518082600019166000191681526020019150506020604051808303816000865af115801561062a573d6000803e3d6000fd5b505050604051516c01000000000000000000000000026bffffffffffffffffffffffff191681602001516bffffffffffffffffffffffff191614151561066f57600080fd5b6000816060015111151561068257600080fd5b4261069c600254836040015161108290919063ffffffff16565b1115156106a857600080fd5b3373ffffffffffffffffffffffffffffffffffffffff166108fc82606001519081150290604051600060405180830381858888f193505050501580156106f2573d6000803e3d6000fd5b506000600360008473ffffffffffffffffffffffffffffffffffffffff1673ffffffffffffffffffffffffffffffffffffffff16815260200190815260200160002060003373ffffffffffffffffffffffffffffffffffffffff1673ffffffffffffffffffffffffffffffffffffffff1681526020019081526020016000206003018190555082600360008473ffffffffffffffffffffffffffffffffffffffff1673ffffffffffffffffffffffffffffffffffffffff16815260200190815260200160002060003373ffffffffffffffffffffffffffffffffffffffff1673ffffffffffffffffffffffffffffffffffffffff16815260200190815260200160002060000181600019169055507f57ea89b6814fccbbe8728fa89cc8e6b5477e559b2a34e946e105b11112e94b5860405160405180910390a1505050565b6000600360003373ffffffffffffffffffffffffffffffffffffffff1673ffffffffffffffffffffffffffffffffffffffff16815260200190815260200160002060008373ffffffffffffffffffffffffffffffffffffffff1673ffffffffffffffffffffffffffffffffffffffff168152602001908152602001600020600001549050919050565b3373ffffffffffffffffffffffffffffffffffffffff166000809054906101000a900473ffffffffffffffffffffffffffffffffffffffff1673ffffffffffffffffffffffffffffffffffffffff1614151561091557600080fd5b80600160006101000a81548173ffffffffffffffffffffffffffffffffffffffff021916908373ffffffffffffffffffffffffffffffffffffffff16021790555050565b6000809054906101000a900473ffffffffffffffffffffffffffffffffffffffff1681565b6000600360008373ffffffffffffffffffffffffffffffffffffffff1673ffffffffffffffffffffffffffffffffffffffff16815260200190815260200160002060003373ffffffffffffffffffffffffffffffffffffffff1673ffffffffffffffffffffffffffffffffffffffff16815260200190815260200160002060030154141515610a0c57600080fd5b610a1681336110a0565b7ff033b1996724f83148658e1ed545e765cc25d3285664b29ebde83e26d291f0b660405160405180910390a150565b6003602052816000526040600020602052806000526040600020600091509150508060000154908060010160009054906101000a90046c0100000000000000000000000002908060020154908060030154905084565b600034111515610aaa57600080fd5b6000600360003373ffffffffffffffffffffffffffffffffffffffff1673ffffffffffffffffffffffffffffffffffffffff16815260200190815260200160002060008373ffffffffffffffffffffffffffffffffffffffff1673ffffffffffffffffffffffffffffffffffffffff16815260200190815260200160002060030154141515610b3857600080fd5b6080604051908101604052806000600102600019168152602001836bffffffffffffffffffffffff1916815260200142815260200134815250600360003373ffffffffffffffffffffffffffffffffffffffff1673ffffffffffffffffffffffffffffffffffffffff16815260200190815260200160002060008373ffffffffffffffffffffffffffffffffffffffff1673ffffffffffffffffffffffffffffffffffffffff1681526020019081526020016000206000820151816000019060001916905560208201518160010160006101000a81548173ffffffffffffffffffffffffffffffffffffffff02191690836c010000000000000000000000009004021790555060408201518160020155606082015181600301559050507f75e08a17287037df5e6f71989e369f532836e26f5ee121161a3dc370b8064764426040518082815260200191505060405180910390a15050565b6000600360003373ffffffffffffffffffffffffffffffffffffffff1673ffffffffffffffffffffffffffffffffffffffff16815260200190815260200160002060008373ffffffffffffffffffffffffffffffffffffffff1673ffffffffffffffffffffffffffffffffffffffff16815260200190815260200160002060030154141515610d1e57600080fd5b610d2833826110a0565b7fc35789ccff76271dc0efa6bfde2f4d4a32cd48dd86278f75f8648cb068c86e3b60405160405180910390a150565b600042905090565b600160009054906101000a900473ffffffffffffffffffffffffffffffffffffffff1681565b6000600360003373ffffffffffffffffffffffffffffffffffffffff1673ffffffffffffffffffffffffffffffffffffffff16815260200190815260200160002060008373ffffffffffffffffffffffffffffffffffffffff1673ffffffffffffffffffffffffffffffffffffffff16815260200190815260200160002060030154141515610e1357600080fd5b7fb5d7df977b4f74f869574c745283e386368bf2ed9efa20e7fabe28f84eb308e360405160405180910390a150565b6000600360008373ffffffffffffffffffffffffffffffffffffffff1673ffffffffffffffffffffffffffffffffffffffff16815260200190815260200160002060003373ffffffffffffffffffffffffffffffffffffffff1673ffffffffffffffffffffffffffffffffffffffff168152602001908152602001600020600301549050919050565b610ed3611162565b600360003373ffffffffffffffffffffffffffffffffffffffff1673ffffffffffffffffffffffffffffffffffffffff16815260200190815260200160002060008373ffffffffffffffffffffffffffffffffffffffff1673ffffffffffffffffffffffffffffffffffffffff168152602001908152602001600020608060405190810160405290816000820154600019166000191681526020016001820160009054906101000a90046c01000000000000000000000000026bffffffffffffffffffffffff19166bffffffffffffffffffffffff1916815260200160028201548152602001600382015481525050905060008160600151111515610fd757600080fd5b42610ff1600254836040015161108290919063ffffffff16565b101515610ffd57600080fd5b3373ffffffffffffffffffffffffffffffffffffffff166108fc82606001519081150290604051600060405180830381858888f19350505050158015611047573d6000803e3d6000fd5b5061105233836110a0565b7f5d26862916391bf49478b2f5103b0720a842b45ef145a268f2cd1fb2aed5517860405160405180910390a15050565b600080828401905083811015151561109657fe5b8091505092915050565b600360008373ffffffffffffffffffffffffffffffffffffffff1673ffffffffffffffffffffffffffffffffffffffff16815260200190815260200160002060008273ffffffffffffffffffffffffffffffffffffffff1673ffffffffffffffffffffffffffffffffffffffff1681526020019081526020016000206000808201600090556001820160006101000a81549073ffffffffffffffffffffffffffffffffffffffff02191690556002820160009055600382016000905550505050565b6080604051908101604052806000801916815260200160006bffffffffffffffffffffffff19168152602001600081526020016000815250905600a165627a7a723058201d27787e8076065bb67cd9d1e79e218947dd12918e674760bf7e12bc521eaf4b0029",
  "source": "pragma solidity ^0.4.23;\n\nimport './SafeMath.sol';\n\ncontract Swapoffchains {\n\n  using SafeMath for uint;\n\n  address public owner;\n  address public ratingContractAddress;\n  uint256 SafeTime = 3 hours; // atomic swap timeOut\n\n  struct Swap {\n    bytes32 secret;\n    bytes20 secretHash;\n    uint256 createdAt;\n    uint256 balance;\n  }\n\n  // ETH Owner => BTC Owner => Swap\n  mapping(address => mapping(address => Swap)) public swaps;\n\n  constructor () public {\n    owner = msg.sender;\n  }\n\n  function setReputationAddress(address _ratingContractAddress) public {\n    require(owner == msg.sender);\n    ratingContractAddress = _ratingContractAddress;\n  }\n\n  event Sign();\n\n  // ETH Owner signs swap\n  // initializing time for correct work of close() method\n  function sign(address _participantAddress) public {\n    require(swaps[msg.sender][_participantAddress].balance == 0);\n\n    emit Sign();\n  }\n\n  // BTC Owner checks if ETH Owner signed swap\n  function checkSign() public view returns (uint) {\n    return now;\n  }\n\n  event CreateSwap(uint256 createdAt);\n\n  // ETH Owner creates Swap with secretHash\n  // ETH Owner make token deposit\n  function createSwap(bytes20 _secretHash, address _participantAddress) public payable {\n    require(msg.value > 0);\n    require(swaps[msg.sender][_participantAddress].balance == uint256(0));\n\n    swaps[msg.sender][_participantAddress] = Swap(\n      bytes32(0),\n      _secretHash,\n      now,\n      msg.value\n    );\n\n    emit CreateSwap(now);\n  }\n\n  // BTC Owner receive balance\n  function getBalance(address _ownerAddress) public view returns (uint256) {\n    return swaps[_ownerAddress][msg.sender].balance;\n  }\n\n  event Withdraw();\n\n  // BTC Owner withdraw money and adds secret key to swap\n  // BTC Owner receive +1 reputation\n  function withdraw(bytes32 _secret, address _ownerAddress) public {\n    Swap memory swap = swaps[_ownerAddress][msg.sender];\n\n    require(swap.secretHash == ripemd160(_secret));\n    require(swap.balance > uint256(0));\n    require(swap.createdAt.add(SafeTime) > now);\n\n    msg.sender.transfer(swap.balance);\n\n    swaps[_ownerAddress][msg.sender].balance = 0;\n    swaps[_ownerAddress][msg.sender].secret = _secret;\n\n    emit Withdraw();\n  }\n\n  // ETH Owner receive secret\n  function getSecret(address _participantAddress) public view returns (bytes32) {\n    return swaps[msg.sender][_participantAddress].secret;\n  }\n\n  event Close();\n\n  // ETH Owner closes swap\n  // ETH Owner receive +1 reputation\n  function close(address _participantAddress) public {\n    require(swaps[msg.sender][_participantAddress].balance == 0);\n\n    clean(msg.sender, _participantAddress);\n\n    emit Close();\n  }\n\n  event Refund();\n\n  // ETH Owner refund money\n  // BTC Owner gets -1 reputation\n  function refund(address _participantAddress) public {\n    Swap memory swap = swaps[msg.sender][_participantAddress];\n\n    require(swap.balance > uint256(0));\n    require(swap.createdAt.add(SafeTime) < now);\n\n    msg.sender.transfer(swap.balance);\n    // TODO it looks like ETH Owner can create as many swaps as possible and refund them to decrease someone reputation\n    clean(msg.sender, _participantAddress);\n\n    emit Refund();\n  }\n\n  event Abort();\n\n  // BTC Owner closes Swap\n  // If ETH Owner don't create swap after init in in safeTime\n  // ETH Owner -1 reputation\n  function abort(address _ownerAddress) public {\n    require(swaps[_ownerAddress][msg.sender].balance == uint256(0));\n\n    clean(_ownerAddress, msg.sender);\n\n    emit Abort();\n  }\n\n  function clean(address _ownerAddress, address _participantAddress) internal {\n    delete swaps[_ownerAddress][_participantAddress];\n  }\n}\n",
  "sourcePath": "/home/leon/altteam/work/ethlightningswap/contracts/Swapoffchains.sol",
  "compiler": {
    "name": "solc",
    "version": "0.4.24+commit.e67f0147.Emscripten.clang"
  },
  "schemaVersion": "2.0.1",
  "updatedAt": "2018-09-11T05:50:05.395Z"
}